:020000040000FA
:08000000803102288731FD2F39
:100F540050018C0108005101910193019201080094
:100F64004001980199019A013B309200F0309300BE
:100F7400FF309400FF307E01CE00F030C3003330E8
:100F8400B800C401B901CF010430BA00C501D001D1
:100F94003730BB00F030C600FF30D1003F30BC001A
:100FA400F030C700FF30D20008008731B227873104
:100FB4008731AD2787318731AA2787314001121540
:100FC4000230F1004530F000AA30890BE72FF00B16
:100FD400E72FF10BE72F400112110230F1004530E9
:100FE400F000AA30890BF42FF00BF42FF10BF42F3F
:0C0FF400E02F8031022840018731D72F08
:020000040001F9
:04000E00ED3FE73F9C
:04001400FF3FFF3F6C
:00000001FF
