:020000040000FA
:08000000803102288731FD2F39
:100F8C0040011211080051019101930192010800D6
:100F9C0001307005F40000307105F5000800873150
:100FAC00C62787318731C92787314001181107308F
:100FBC00F0000030F1008731CE27873174037504BF
:100FCC00031DE92FEA2FED2F40011815EF2F4001DB
:100FDC0018110230F3004530F200AA30890BF42FBF
:100FEC00F20BF42FF30BF42FDD2F8031022840018C
:040FFC008731D52F35
:020000040001F9
:04000E00ED3FE73F9C
:04001400FF3FFF3F6C
:00000001FF
