:020000040000FA
:08000000803102288731FB2F3B
:100F040051019101930192010800013041019D00BA
:100F140040309E009B019C010800F3007308F2001E
:100F2400F20DF20D41011D087206033972069D008F
:100F34001D14003241019D14A02F640041019D182D
:100F4400A42FA52F9F2F1C08F1001B08F0000800F8
:100F54008731CF27873187318227873187318727A8
:100F6400873140010E1DB72FB82FCB2F01308731A9
:100F74008F27873102307102013003197002031C7C
:100F8400C42FC52FC82F40011811B32F40011815C5
:100F9400B32F1811B32F8031022840019801990111
:100FA4009A013B309200F0309300FF309400FB3004
:100FB4007E01CE00F030C3003330B800C4010430E9
:100FC400B9000430CF00BA01C501D0013730BB00ED
:100FD400F030C600FF30D1003F30BC00F030C70015
:100FE400FF30D2004001121114157E014F15B814C0
:0C0FF4000800F401F50140018731AA2F2C
:020000040001F9
:04000E00ED3FE73F9C
:04001400FF3FFF3F6C
:00000001FF
