:020000040000FA
:08000000803102288731E32F53
:100EBE00E734033451019101930192010800EE349D
:100ECE000234F43401340A34003490304601960072
:100EDE003E309500403094000800013045019000EE
:100EEE008F019101F9308D008C014E010D13803070
:100EFE0045018E0008007708F9007608F800F936EB
:100F0E00F80CF936F80C7808460195007608033986
:100F1E00F8000530F835FF3E031D912F783594000B
:100F2E0008008731B52787318731612787318731AF
:100F3E007427873187316C2787310A30F6000030ED
:100F4E00F7008731822787310430FA003E30890B53
:100F5E00AE2FFA0BAE2FA42F80310228400198013C
:100F6E0099019A013B309200F0309300FF309400CB
:100F7E00FB307E01CE00F030C3003330B800C40128
:100F8E000430B9000430CF00BA01C501D0013730AA
:100F9E00BB00F030C600FF30D1003F30BC00F03057
:100FAE00C700FF30D2004001121114157E014F15FB
:100FBE00B814033092000800663084008730850034
:100FCE001200F0001200F1001200F2001200F30005
:100FDE001200F4001200F50087315F278731A00060
:100FEE00873160278731A100FB01FC014001873169
:020FFE00982F2A
:020000040001F9
:04000E00ED3FE73F9C
:04001400FF3FFF3F6C
:00000001FF
